:020000040800F2
:10000000E01E0020AD010008CF070008C707000868
:10001000CB070008A3060008171500080000000021
:10002000000000000000000000000000A10900081E
:10003000A706000800000000C3010008010B00082B
:10004000C7010008C7010008C7010008C701000870
:10005000C7010008C7010008C7010008C701000860
:10006000C7010008C7010008C7010008C701000850
:10007000C7010008C7010008C7010008C701000840
:10008000C7010008C7010008C7010008C701000830
:10009000C7010008C7010008C7010008C701000820
:1000A000C7010008B50B0008C7010008C701000818
:1000B000C7010008C7010008C7010008C701000800
:1000C000C7010008C7010008C7010008C7010008F0
:1000D000C7010008C7010008C7010008C7010008E0
:1000E000C7010008C7010008C7010008C7010008D0
:1000F000C7010008C7010008C7010008C7010008C0
:10010000C7010008C7010008C7010008C7010008AF
:10011000C7010008C7010008C7010008C70100089F
:10012000C7010008C7010008C7010008C70100088F
:10013000C7010008C7010008C7010008C70100087F
:10014000C7010008C7010008C7010008C70100086F
:10015000C7010008C7010008C7010008C70100085F
:10016000C7010008C7010008C7010008C70100084F
:10017000C7010008C7010008C7010008C70100083F
:10018000C7010008C7010008C7010008C70100082F
:10019000C7010008C7010008DFF80CD000F030FAF2
:1001A00000480047851A0008E01E002006488047E6
:1001B00006480047FEE7FEE7FEE7FEE7FEE7FEE74C
:1001C000FEE7FEE7FEE7FEE7050B000899010008E1
:1001D0002DE9FE4F804681EA0300C00F0C460090D7
:1001E00021F0004123F00045B8EB0200A94105D2FF
:1001F0004046214690461C460B46024623F00040EE
:10020000104347D0270DC7F30A00C3F30A510290E9
:10021000401A019040286BDAC3F3130040F4801BAE
:100220000098924620B10023D2EB030A63EB0B0B3C
:1002300001985946C0F14002504600F011F90646B7
:100240000D4650465946019A00F019F910EB080086
:100250006141002487EA115284EAE7731A4340D0CF
:10026000009A62B3019A012A4FEA075215DC001B7B
:1002700061EB02014FF0004202EA0752CDE9004271
:10028000001C41F5801132462B4600F050F903B0B6
:10029000BDE8F08F40462146F9E7001B61EB020103
:1002A000001C41F5801300185B412018A2F50017CF
:1002B00047EB030140EAD570B6196D4111E06D08B6
:1002C0004FEA360645EAC0754FEA0752001B61EB5C
:1002D0000201001C41F5801149084FEA3000001965
:1002E000514132462B4603B0BDE8F04F00F010B943
:1002F0000098012240000023D0EB020263EBE07380
:10030000009821464FEAE074B8EB000061EB04016D
:10031000E9E783F000435BE781F0004158E72DE90E
:10032000FE4F81EA030404F0004421F000410094F0
:100330004FF0000B23F0004350EA01045ED052EA74
:1003400003045BD0C3F30A54C1F30A552C44A4F24E
:10035000F3340194A0FB0254C1F3130141F4801162
:10036000C3F3130343F4801301FB024400FB034E69
:10037000840A970A44EA815447EA8357A4FB076832
:1003800002958D0A05FB07854FEA932C04FB0C545C
:100390002705029D4FEA065847EA1637B5EB0805D0
:1003A0006EEB070C870E920E47EA811742EA831222
:1003B000A7FB0201B6EB0B0164EB00042B0D43EA33
:1003C0000C335E1844EB1C50DA465146E7FB020141
:1003D000C5F313044FEA0B3343EA14534FEA0432D4
:1003E000019C43EA0603A4F10C040294009CCDE9AD
:1003F00000B400F09CF803B0BDE8F08F0020014687
:10040000F9E700F0004230F000400AD0C10D01F5DC
:100410006071C0F3160042EA0151C208400711435F
:10042000704700200146704701F0004330B421F0CE
:10043000004150EA010206D00A0DA2F56072C1F334
:100440001301002A02DC30BC00207047440F44EA4C
:10045000C104C100E01830BC00EBC25000F021B86C
:10046000202A04DB203A00FA02F100207047914074
:10047000C2F1200320FA03F3194390407047202A69
:1004800006DBCB17203A41FA02F043EAE07306E0BC
:1004900041FA02F3D040C2F12002914008431946CC
:1004A00070470029A8BF7047401C490008BF20F0D2
:1004B0000100704710B4B0FA80FC00FA0CF050EA6A
:1004C000010404BF10BC704749B1CCF1200421FAEB
:1004D00004F411FA0CF118BF012121430843A3EBE6
:1004E0000C01CB1D4FEA00614FEA102042BF0020F3
:1004F00010BC704700EBC35010440029A4BF10BCCF
:100500007047401C490008BF20F0010010BC704734
:1005100010B5141E73F1000408DA401C41F100010B
:1005200092185B411A4301D120F0010010BD2DE962
:10053000F04D92469B4611B1B1FA81F202E0B0FA59
:1005400080F220329046FFF78BFF04460F4640EAC8
:100550000A0041EA0B0153465A46084313D011469C
:1005600053EA010019D0C8F14002504600F05AF891
:1005700005460E46504659464246FFF771FF08436E
:1005800005D0012004E020463946BDE8F08D00206A
:10059000054346EAE0762C4337430A986305E40AAC
:1005A000A0EB08000022FD0A44EA47540A3002D5B5
:1005B00000200146E9E7010510196941DDE9084518
:1005C00000196941BDE8F04DA2E7002801DBC0F148
:1005D0000040002901DBC1F10041814202D24FF00D
:1005E000004004E04FF0005001D14FF0C0404FEA0E
:1005F0002062EFF3008162F31F6181F3008870478E
:10060000064C074D06E0E06840F0010394E807005F
:1006100098471034AC42F6D3FFF7C2FD681B0008C0
:10062000881B0008202A04DB203A21FA02F000216E
:10063000704721FA02F3D040C2F1200291400843F2
:100640001946704770B58D1810F8014B14F003026D
:1006500001D110F8012B231106D110F8013B03E062
:1006600010F8016B01F8016B521EF9D1ABB110F813
:10067000012B04F00C048A1A0C2C03D0A2EB841278
:100680009B1C08E010F8014BA2EB0422F8E712F8DB
:10069000014B01F8014B5B1EF9D5A942D4D30020D0
:1006A00070BD00BFFEE770472DE9F041024600250E
:1006B0000026002000230024002791F803C00CF03E
:1006C0000F0591F803C00CF0100CBCF1000F03D023
:1006D00091F802C04CEA050591F800C0BCF1000F8A
:1006E00031D0146800202BE04FF0010C0CFA00F31D
:1006F000B1F800C00CEA03069E4220D183004FF0FF
:100700000F0C0CFA03F7BC4305FA03FC4CEA040493
:1007100091F803C0BCF1280F06D14FF0010C0CFA80
:1007200000FCC2F814C00AE091F803C0BCF1480F05
:1007300005D14FF0010C0CFA00FCC2F810C0401CAF
:100740000828D1D31460B1F800C0BCF1FF0F34DD2C
:10075000546800202EE000F1080C4FF0010808FA60
:100760000CF3B1F800C00CEA03069E4221D18300CD
:100770004FF00F0C0CFA03F7BC4305FA03FC4CEAEC
:10078000040491F803C0BCF1280F05D100F1080C56
:1007900008FA0CF8C2F8148091F803C0BCF1480FB5
:1007A00007D100F1080C4FF0010808FA0CF8C2F864
:1007B0001080401C0828CED35460BDE8F081416110
:1007C00070470161704700BFFEE700BFFEE770475A
:1007D00070B5002100230F22C47804B3154C24689F
:1007E00004F4E064C4F5E064210AC1F10403CA40E2
:1007F000447804FA03F184781440214309010E4C33
:100800000678A155047804F01F050124AC40057852
:100810006D11AD0005F1E025C5F8004109E004784F
:1008200004F01F050124AC40044D0678761145F80C
:10083000264070BD0CED00E000E400E080E100E047
:1008400002490143024A1160704700000000FA05A6
:100850000CED00E029B1064AD2690243044BDA618B
:1008600004E0034AD2698243014BDA617047000019
:100870000010024029B1064A92690243044B9A6172
:1008800004E0034A92698243014B9A617047000079
:1008900000100240F0B5002100BF00220025002416
:1008A000384E7668384F06EA0702364E766806F408
:1008B000803502F000661EB9022606EB924204E083
:1008C0004FF4F876C6EB9246721C1DB92F4E02FB10
:1008D00006F30BE02B4E766806F400361EB12B4E65
:1008E00002FB06F302E02A4E02FB06F3254E766871
:1008F00006F00C0121B1042905D0082908D105E032
:10090000234E066007E0224E066004E0036002E02A
:100910001F4E066000BF00BF1A4E766806F0F00159
:1009200009091C4E745C0668E6404660154E766800
:1009300006F4E061090A174E745C4668E64086607A
:10094000104E766806F46051C90A124E745C46680F
:10095000E640C6600B4EF66A06F00F010E4E745C60
:100960004668B6FBF4F64661064EF66A06F4F87180
:10097000090901F00F06094F37F81640B3FBF4F6EA
:100980000661F0BD0010024000003C0800093D0077
:1009900000127A00081B0008181B0008281B00081A
:1009A0007047000090ED000ADFED120A20EE200AE9
:1009B000BCEEC00A10EE101AC9B20F4A118090EDB9
:1009C000010ADFED0C0A20EE200ABCEEC00A10EE90
:1009D000101AC9B2121D118090ED020ADFED050A4E
:1009E00020EE200ABCEEC00A10EE101AC9B2121D89
:1009F000118070470000C842342C01400EB5002021
:100A00000290019000903848006840F480303649E8
:100A1000086000BF34480068C0F34040019000986F
:100A2000401C00909DF8040018B90098B0F5004FE4
:100A3000F0D12D480068C0F3404001909DF80400BB
:100A400018B92A482A4908600EBD2A48006820F0D3
:100A50000700284908600846006840F00400086064
:100A600021484068204948600846406840F40050EA
:100A700048600846406840F4A06048600846406806
:100A80001D4908401849486008464068029002988D
:100A900040F480300290029802901849029808436E
:100AA00002901149029848600846006840F0807042
:100AB000086000BF0C48006800F000700028F9D002
:100AC0000948406820F0030007494860084640682C
:100AD00040F00200486000BF0348406800F00C008E
:100AE0000828F9D100BFAFE70010024000127A00D9
:100AF0000000002000200240FFFFC0F700000408B3
:100B00007047000010B52448006840F47000224986
:100B100008602248006840F001002049086008464B
:100B200040681F4908401D494860084600681D4943
:100B300008401A4908600846006820F480200860D0
:100B40000846406818490840144948600020C862B7
:100B500008634FF41F0088600846C06940F0805069
:100B6000C8611248C06840F001001049C8600B48D5
:100B7000C06920F080500949C8610D48006840F004
:100B800090000B490860FFF739FF4FF00060024901
:100B90008039086010BD000088ED00E000100240C0
:100BA00000C0FFF8FFFFF6FEFFFF00F700700040F7
:100BB0000020024010B53C48006800F00100002809
:100BC0006AD03A48007828B14FF400513848FFF70E
:100BD000F8FD04E04FF400513548FFF7F0FD3348CD
:100BE0000078C0F1010031490870B7EE000A3148C1
:100BF00080ED060A9FED300A80ED050A2F48304946
:100C0000098800EB810090ED000A2E4880ED000A73
:100C1000D0ED000AB0EE600A00F082FD294880EDB8
:100C2000010AD0ED000AB0EE600A00F089FC254808
:100C300080ED020A244A9FED200A01461D4800F07B
:100C4000ABFB2148FFF7AEFE20480088B0F5C87F17
:100C500014DA1D4890ED000ADFED1D0A20EE200A8F
:100C6000BCEEC00A10EE100A1A49184A128821F880
:100C7000120016480088401C14490880104800885B
:100C8000B0F5C77F03DD00200D49088004E00C4863
:100C90000088401C0A4908800348006820F00100D1
:100CA0000149086010BD0000102C01400800002020
:100CB000001001406806002000000000180000201D
:100CC0000E00002084060020900600200A0000206C
:100CD0000000C8429C06002010B502460B884C88D4
:100CE00023438C882343CC8823430C8923434C899A
:100CF00023438C892343A2F8443010688B7B13B1C3
:100D000020F4806001E040F48060CB7B13B140F4BC
:100D1000803001E020F480300B7C13B140F40030CF
:100D200001E020F40030106010BD1AB183890B433C
:100D3000838102E083898B438381704721B10268FC
:100D400042F00102026003E0026822F00102026048
:100D5000704731B1B0F8442042F40042A0F844207A
:100D600005E0B0F84420C2F30E02A0F8442070471A
:100D70000021018041808180C18001814181818188
:100D80007047000030B5002400220023056A25F0DA
:100D900001050562026A4368048B4FF68F752C408B
:100DA0004FF6FC752C400D882C4322F002020D8971
:100DB0002A434D882A430E4DA84202D00D4DA84229
:100DC0000FD122F008024D892A4322F004028D88B7
:100DD0002A4323F4807323F400738D892B43CD8938
:100DE0002B4343600483CD888586026230BD0000BA
:100DF000002C01400034014070B500240022002383
:100E0000056A25F010050562026A4368048B48F6FE
:100E1000FF752C404FF6FF452C400D884FF6FF76AE
:100E200006EA05252C4322F020020D8942EA05122C
:100E30004D8842EA0512104DA84202D00F4DA8423B
:100E400013D122F080024D8942EA051222F04002BD
:100E50008D8842EA051223F4806323F400638D89B0
:100E600043EA8503CD8943EA850343600483CD8843
:100E70000587026270BD0000002C01400034014073
:100E800030B5002400220023056A25F48075056230
:100E9000026A4368848B4FF68F752C404FF6FC75C1
:100EA0002C400D882C4322F400720D8942EA052261
:100EB0004D8842EA0522104DA84202D00F4DA842AB
:100EC00013D122F400624D8942EA052222F48062A5
:100ED0008D8842EA052223F4805323F400538D8940
:100EE00043EA0513CD8943EA051343608483CD8823
:100EF0008587026230BD0000002C014000340140B3
:100F000070B5002200230024056A25F4805505628F
:100F1000036A4468828B48F6FF752A404FF6FF4506
:100F20002A400D884FF6FF7606EA05252A4323F46A
:100F300000530D8943EA05334D8843EA0533094DD3
:100F4000A84202D0084DA84204D124F480448D89DF
:100F500044EA851444608283CD88A0F8405003623F
:100F600070BD0000002C0140003401400A46002101
:100F700001684D4B98420ED04C4B98420BD0B0F1CB
:100F8000804F08D04A4B984205D04A4B984202D035
:100F9000494B984203D121F0700153881943474BC4
:100FA000984206D0464B984203D021F44071D38832
:100FB0001943016093888385138803853A4B9842CF
:100FC00002D03A4B984201D1137A038601238382DF
:100FD0000168354B98420ED0344B98420BD0B0F19B
:100FE000804F08D0324B984205D0324B984202D005
:100FF000314B984206D1537A13B141F4006101E0BC
:1010000021F40061B0F1804F08D0294B984205D0FF
:10101000284B984202D0284B98420DD1937A13B1B5
:1010200041F4805101E021F48051D37A13B141F4AD
:10103000005101E021F40051B0F1804F05D01C4B6C
:10104000984202D01B4B984206D1137B13B141F456
:10105000804101E021F48041134B98420BD0134BA7
:10106000984208D0B0F1804F05D0114B984202D081
:10107000104B984206D1537B13B141F4004101E07B
:1010800021F4004101604168B0F1804F02D0094B6A
:10109000984206D1937B13B141F4807101E021F4B1
:1010A0008071416070470000002C01400034014015
:1010B0000004004000080040000C00400010004008
:1010C0000014004010B588B0044601210220FFF74B
:1010D000C1FB01211D20FFF7CDFB012140F67D0062
:1010E000FFF7C8FB64204849088002204749088070
:1010F0000120474908800020464908800A204649C7
:101100000880472045490880602048803E48008884
:1011100088800020C88008722046FFF727FF7020D3
:101120003F49088001204880042088803748008893
:10113000C8800020088148814FF480708881002099
:10114000C8812046FFF71EFE324800883449C88017
:101150002046FFF795FE304800883149C880204678
:10116000FFF7CEFE2A4800882D49C8802046FFF7A9
:1011700043FE03A8FFF7FCFD1420ADF8120003A9FD
:101180002046FFF7A9FD4FF4C060FFF759FB192077
:101190008DF8080001208DF8090000208DF80A0064
:1011A00001208DF80B0002A8FFF712FB0122114667
:1011B0002046FFF7BAFD01212046FFF7BFFD0121C0
:1011C0002046FFF7C6FD4FF4E860ADF80400182094
:1011D0008DF8070003208DF8060001A91148FFF7DC
:1011E00063FA4FF46040ADF8040001A90E48FFF720
:1011F0005BFA4FF40060ADF8040001A90948FFF75D
:1012000053FA08B010BD0000580600205A0600200E
:101210005C0600205E06002060060020BC0900205D
:10122000CC09002000080140000C014000B585B049
:1012300001210520FFF71EFB01214804FFF70AFBEF
:101240000420ADF8100003208DF8120018208DF84E
:10125000130004A91248FFF727FA0820ADF8100080
:1012600004208DF8130004A90D48FFF71DFA0D485E
:1012700000900020ADF80400ADF80600ADF80800BD
:10128000ADF80C000C20ADF80A006946064800F0E5
:101290001FF80121044800F00FF805B000BD000060
:1012A00000080140009411000044004000BF00BF4E
:1012B000C1F308028280704721B1828942F4005252
:1012C000828104E082894DF6FF731A408281704763
:1012D0002DE9F04786B005460F460024A24600BF20
:1012E00000BF0026B88900B100BF2E462C8A4CF6FC
:1012F000FF700440F88804432C82AC894EF6F3104A
:101300000440B88839890843798908430443AC818B
:10131000AC8A4FF6FF400440B8890443AC8268466B
:10132000FFF7B8FA1948864205D01948864202D01C
:101330001848864202D1DDF80CA001E0DDF808A0D3
:101340000AEBCA0000EB0A1039688900B0FBF1F81B
:101350006420B8FBF0F004012009642101FB108037
:10136000322101EB00106421B0FBF1F90120B0EB58
:10137000191F04D16420B8FBF0F0401C040109F0EF
:101380000F0004432C8106B0BDE8F087003801400F
:10139000005001400054014070B52DED0C8B044607
:1013A0000E46B0EE40DA15463146204600F0A4F86D
:1013B00094ED040AF6EE000A20EE200AF0EE408AD0
:1013C00094ED030ADFED470A20EE200AB0EE408AD2
:1013D00038EE680AB0EE409AB1EE480A30EE680A7C
:1013E000F0EE409AD4ED040AB0EE600AF0EE490A3D
:1013F00000F04EF9B0EE40AAF0EE690A00F048F9AC
:10140000F0EE40AAD4ED040AB0EE600AF0EE490A0C
:1014100000F062F9B0EE40AAF0EE690A00F05CF963
:101420003AEE800AFEEE000A20EE200AB0EE408A74
:1014300094ED040A30EE080A10EE101A0846FEF782
:10144000E0FF41EC1C0B9FED280B53EC102BFEF73B
:1014500066FF41EC1B0B9FED260B53EC102BFEF7A8
:10146000B7FE41EC1A0BFEF7DFFF286039EE080AE1
:1014700010EE101A0846FEF7C4FF41EC1C0B9FED5E
:101480001A0B53EC102BFEF74AFF41EC1B0B9FEDA0
:10149000180B53EC102BFEF79BFE41EC1A0BFEF7DA
:1014A000C3FF686039EE880A10EE101A0846FEF78E
:1014B000A8FF41EC1C0B9FED0C0B53EC102BFEF71F
:1014C0002EFF41EC1B0B9FED0A0B53EC102BFEF78C
:1014D0007FFE41EC1A0BFEF7A7FFA860BDEC0C8B5A
:1014E00070BD0000D7B35D3FAFE18345A779E23F10
:1014F000000000000000E03F70B505460C4694ED8A
:10150000021AF0EE410A94ED011AB0EE410A2846A3
:1015100000F0A2FA70BD00BFFEE74100080218BF4C
:1015200004200A0E18BF40F001004FF07F4232EA5B
:10153000010108BF40F00200012808BF05207047E4
:1015400010EE101A08B5444A6846B2EB410F28D98C
:101550004FF0E640B0EB410F94BF00204FF0FF305A
:1015600000900098002861DB60EE000A10F0010F87
:1015700045D010F0020FDFED391A9FED391A00EE59
:10158000E11ADFED381A40EE811A21EEA01AF0EED2
:10159000400A40EE010A08BFF1EE600AB0EE600AB0
:1015A00008BD314B21F0004293423CD911F0004F6D
:1015B000DFED2E0A20EE201ADFED2D0A19BF31EEE5
:1015C000601A71EE200A31EE201A71EE600ABDEE4B
:1015D000E01A11EE100A9FED271A00F0030000EE4A
:1015E000C10A9FED251A009000EEC10A9FED231A53
:1015F00000EEC10A9FED221A00EEC10AB1E79FED8D
:10160000211A9FED210A10F0020F00EE810A9FEDD2
:101610001F1A00EE801AB7EE000A00EE810A18BF0A
:10162000B1EE400A08BD00F057F99AE710EE100A33
:101630004000B0F17F4F3CBFB7EE000A08BD07D1B4
:101640004FF0010000F002FABDE8084000F034B9A4
:10165000BDE8084000F02CB9B61F927E336D4C39BE
:10166000DA82083CA0AA2ABE490E494683F9223FE5
:101670000000004B0000C93F00A0FD390020A2334C
:101680001A61342CB93AB2BACA9F2A3DDDFFFFBEB7
:1016900010B52DED028BB0EE608AF0EE408A18EEA8
:1016A000101A18EE900AFEF790FF00F07040B0F1AB
:1016B000005F0CD018EE100A20F00040C0F1FF408F
:1016C000C00F02BFB0EE480ABDEC028B10BDB0EEF9
:1016D000680ABDEC028B10BD10B52DED028BB0EE8B
:1016E000608AF0EE408A18EE101A18EE900AFEF7A3
:1016F0006CFF00F07040B0F1004F0CD018EE100AF3
:1017000020F00040C0F1FF40C00F02BFB0EE480A19
:10171000BDEC028B10BDB0EE680ABDEC028B10BDB3
:1017200000B510EE101A2DED028B81B0524A6846BA
:10173000B2EB410F2ED94FF0E640B0EB410F94BF12
:1017400000204FF0FF3000900098B0EE408A002853
:101750006ADB10F0010F4BD068EE080A9FED471AC4
:101760009FED470A00EE810A9FED461A10F0020F26
:1017700000EE801AB7EE000A00EE810A02BF01B047
:10178000BDEC028B00BD00BF01B0B1EE400ABDEC64
:10179000028B00BD3C4B21F00042934241D911F035
:1017A000004FDFED3A0A20EE201ADFED390A19BFAB
:1017B00031EE601A71EE200A31EE201A71EE600AE5
:1017C000BDEEE01A11EE100A9FED321A00F0030090
:1017D00000EEC10A9FED301A009000EEC10A9FEDA5
:1017E0002F1A00EEC10A9FED2E1A00EEC10AABE7D8
:1017F00028EE080A9FED2B1ADFED2B0A10F0020FDE
:1018000040EE410A9FED291A00EE201A61EE000A0F
:10181000B0EE480A08EE200AB6D101B0BDEC028B4A
:1018200000BD00F059F88FE718EE100A4000B0F143
:101830007F4F0DD218EE100AFFF76FFE042808BF85
:1018400000F042F8B0EE480A01B0BDEC028B00BDDA
:1018500009D1012000F0FAF801B0BDEC028B5DF86F
:1018600004EB00F029B801B0B0EE480ABDEC028BE1
:101870005DF804EB00F01CB8B61F927EB93AB2BA1C
:10188000CA9F2A3DDDFFFFBE490E494683F9223F2C
:101890000000004B0000C93F00A0FD390020A2332A
:1018A0001A61342C336D4C39DA82083CA0AA2ABE66
:1018B00030EE000A70470000DFED020A80EEA00A59
:1018C00070470000000000009FED020A20EE000AB1
:1018D00070470000000000102DE9F0014FF07F423A
:1018E000B2EB410F9FBF4FF0FF310160BDE8F00147
:1018F00070474FF0004242EA0123C1F3C752783AE1
:10190000551112F01F0C434CCCF120067C44C1F35E
:10191000C752A2F178024FEA621204EB820254F835
:10192000254008BFD2E9015612D0556804FA0CF4DC
:1019300025FA06F73C43976805FA0CF527FA06F8EE
:10194000D26807FA0CFCF24045EA08054CEA0206A8
:10195000A4FB034CA5FB0352A6FB03631D449D425D
:1019600034BF012600261319334416B1934202D91D
:1019700003E0934201D2012200E00022624402F11E
:10198000200C9206DC0C42EA443200EE102A5B0383
:10199000DFED210AF8EEC01A00EE103A4FEA9C1C67
:1019A00011F0004FB8EE400AC0F800C020EE201A37
:1019B00000EE105ADFED190AB8EE400A20EE200AB8
:1019C00071EE810A70EE800A10EE902A02F5006234
:1019D0006FF30B0200EE902A70EEE11A31EEC11A9D
:1019E000DFED101A30EE411A9FED0D0A20EE800A4D
:1019F00001EE210A9FED0C1A00EE810A04BFBDE83A
:101A0000F0017047CCF180510160BDE8F001B1EE0A
:101A1000400A704738020000000000360000802CA9
:101A200022AAFD29DB0FC92F0000C92F02E008C838
:101A3000121F08C1002AFAD170477047002001E048
:101A400001C1121F002AFBD1704700000149086044
:101A5000704700006406002090ED061A21EE201A5F
:101A6000D0ED051A01EEC01A80ED041A90ED061AA9
:101A700021EE001AD0ED051A01EEA01A80ED031A2E
:101A80007047000008B501211020FEF7F3FE4FF467
:101A90000050ADF8000010208DF8030003208DF8F1
:101AA000020069461248FEF7FFFD1248FFF70AFBE5
:101AB000FFF7BCFB00BF10480088B0F5C87FFAD123
:101AC00015E000200D4908800CE00D480B4A1288F3
:101AD00030F812100B48FFF7E9FB08480088401C5B
:101AE0000649088005480088B0F5C87FEDDBE8E7C7
:101AF00000100140002C01400A00002004000020DA
:101B00009C06002000440040000000000102030485
:101B1000010203040607080901020406080A0C1062
:101B200020202020202020200100020004000600A8
:101B300008000A000C001000200040008000000196
:101B40000001000100010001000000006E83F9A205
:101B50002915444ED15727FCC0DD34F5999562DB39
:101B60004190433CAB6351FE881B000800000020FD
:101B70006806000044060008D82100086806002016
:101B8000781800003C1A000800061500449508006B
:101B900001101C42B2803C42B2003DE700413D04CE
:101BA000AD803D94D9A03D2506C13DB532E1101070
:101BB00026003E4CC3103E94D9203EDDEF303E253A
:101BC00006413ECE19513E1630613E5F46713E538E
:101BD000AE803E78B988241006903E70CE982810CA
:101BE00006A03EB8E4A82C1016B03EB1F9B83ED518
:101BF00004C13EF90FC93E1E1BD13E4226D9381002
:101C000006E13E3A3BE93C1027F13E8351F93EACF8
:101C1000AD003F3EB3043FD0B8083F62BE0C3FF476
:101C2000C3103FDEC8143F70CE183F02D41C3F786B
:101C3000104E3F26DF243F11E4283FA3E92C3F3517
:101C4000EF303FC7F4343F59FA383F43FF3C3FD5AC
:101C500004413F670A453FF90F493F8C154D3F76D8
:101C60001A513F0820553F9A25593F2C2B5D3FBE06
:101C700030613FA835653F3A3B693FCC406D3FB48A
:101C8000101D3FF14B753FDB50793F6D567D3F0096
:101C9000AE803FC9B0823F92B3843F07B6868810BA
:101CA00006883F99BB8A8C101E8C3F2BC18E3FA0AB
:101CB000C3903F69C6923F32C9943FFBCB963FC465
:101CC000CE983F39D19A9C10069C3FCBD69EA0104F
:101CD00016A03F5DDCA23FD3DEA43F9CE1A63F659A
:101CE000E4A83F2EE7AAAC1006AC3F6CECAEB010F7
:101CF00006B03FFEF1B2B41016B43F3CF7B63F0554
:101D0000FAB83FCEFCBA3F97FFBC3F6002BFC0109D
:101D100006C13F9E07C3C41006C53F300DC7C8109B
:101D200016C93F6F12CB3F3815CD3F0118CF3FCAC0
:101D30001AD13F931DD3D41006D53FD122D7D81046
:101D400006D93F6328DBDC1016DD3FA12DDF3F6A9B
:101D500030E13F3333E33FFC35E53FC538E7E8107A
:101D600006E93F033EEBEC1006ED3F9643EFF01023
:101D700016F13FD448F33F9D4BF53F664EF73F2F9A
:101D800051F93FF853FBFC1406FD3F3659FF001490
:101D90001F004064AF0140C9B0024003B203406875
:101DA000B30440CCB4054031B6064095B70740981F
:101DB000144E4034BA094099BB0A40FDBC0B403870
:101DC000BE0C409CBF0D4001C10E4065C20F40CA11
:101DD000C3104005C5114069C61240CEC71340323A
:101DE000C9144097CA1540D1CB164036CD17409A3A
:101DF000CE1840FFCF194063D11A409ED21B40D469
:101E0000184E4067D51D40CBD61E4030D81F406AC3
:101E1000D92040CFDA214033DC224098DD2340FC3A
:101E2000DE244037E025409CE1264000E327406562
:101E3000E42840C9E5294004E72A4068E82B40CD62
:101E4000E92C4031EB2D4096EC2E40D0ED2F401088
:101E5000184E4099F03140FEF1324062F333409D1C
:101E6000F4344001F6354066F73640CBF837402F62
:101E7000FA38406AFB3940CEFC3A4033FE3B40978B
:101E8000FF3C40FC003E4036023F409B034040FF89
:101E9000044140640642409E074340030944404CCD
:101EA000184E40CC0B4640300D47406B0E4840D09A
:101EB0000F494034114A4099124B40FD134C4038B1
:101EC000154D409C164E4001184F4065195040CAB0
:101ED0001A5140041C5240691D5340CD1E544032DB
:101EE00020554096215640D12257403524584088ED
:101EF000184E40FE265A4063285B409E295C4002F3
:101F00002B5D40672C5E40CB2D5F40302F60406AD8
:101F1000306140CF3162403333634098346440FCD9
:101F2000356540373766409B386740003A68406403
:101F30003B6940C93C6A40033E6B40683F6C40C40B
:101F40001C4E4031426E4096436F40D04470403545
:101F500046714099477240FE487340624A74409D02
:101F60004B7540014D7640664E7740CA4F7840052C
:101F700051794069527A40CE537B4032557C40972C
:101F8000567D40D1577E4036597F404D2D804000D0
:101F900003181D40B22E81404FAF81400130824076
:101FA000B4B082406631834018B28340B5328410A9
:101FB000180684401A348514181E85407E358640E4
:101FC0001CB68640CE36874080B78740323888407E
:101FD000E5B888408239892418068940E73A8A287A
:101FE000181E8A404B3C8B40E8BC8B409B3D8C408C
:101FF0004DBE8C40FF3E8D40B1BF8D404F408E386E
:1020000018068E40B3418F3C181E8F4018439040F5
:10201000B5C390406744914019C59140CC4592406A
:102020007EC692401B47934C1806934080489450BC
:1020300018169440E449954082CA9540344B964026
:10204000E6CB9640984C975C18069740E84D986010
:10205000180698404C4F9964181699409C509A4025
:102060004ED19A4000529B40B3D29B4065539C7026
:1020700018069C40B5549D7418069D4019569E78CC
:1020800018169E4069579F401BD89F40CD58A040CE
:102090007FD9A040325AA1841806A140815BA28852
:1020A0001806A240E65CA38C1816A340355EA44037
:1020B000E8DEA4409A5FA5404CE0A540FE60A698EB
:1020C0001806A6404E62A79C1806A740B263A8A0B7
:1020D0001816A8400265A940B4E5A9406666AA4062
:1020E00019E7AA40CB67ABAC1806AB401A69ACB095
:1020F0001806AC407F6AADB41816AD40CF6BAE4049
:1021000081ECAE40336DAF40E5EDAF40986EB0C0AE
:102110001806B040E76FB1C4181EB1404C71B24010
:10212000E9F1B2409B72B3404DF3B3400074B44048
:10213000B2F4B4404F75B5D41806B540B476B6D8ED
:10214000181EB6401878B740B6F8B7406879B8405E
:102150001AFAB840CC7AB9407FFBB9401C7CBAE887
:102160001806BA40807DBBEC181EBB40E57EBC4023
:1021700082FFBC403480BD40E700BE409981BE4034
:102180004B02BF40E882BFFC1C06C0404D84C0002B
:10219000031C1EC140B285C1404F06C2400187C228
:1021A00040B307C3406688C3401809C440B589C41A
:1021B00010031C06C5401A8BC51403EC17C6407EDD
:1021C0008CC6401B0DC740CE8DC740800EC8403224
:0821D0008FC840540600000016
:040000050800019955
:00000001FF
